{
  "_format": "hh-sol-artifact-1",
  "contractName": "MyContract",
  "sourceName": "contracts/MyContract.sol",
  "abi": [
    {
      "inputs": [
        {
          "internalType": "string",
          "name": "_name",
          "type": "string"
        }
      ],
      "stateMutability": "nonpayable",
      "type": "constructor"
    },
    {
      "inputs": [
        {
          "internalType": "string",
          "name": "_name",
          "type": "string"
        }
      ],
      "name": "changeName",
      "outputs": [],
      "stateMutability": "nonpayable",
      "type": "function"
    },
    {
      "inputs": [],
      "name": "getName",
      "outputs": [
        {
          "internalType": "string",
          "name": "",
          "type": "string"
        }
      ],
      "stateMutability": "view",
      "type": "function"
    }
  ],
  "bytecode": "0x60806040523480156200001157600080fd5b50604051620009bb380380620009bb833981810160405281019062000037919062000223565b6200006a7e41fd414b6b46ff58311bfc6c46ea74923bf68ec0bf4c9b1ff8b0ef63882fab60001b620000f260201b60201c565b6200009e7f45e21f7c99c8d4ef9afcabe2ae14c001f5b59d236bd2f1b392139c48eb57a3bf60001b620000f260201b60201c565b620000d27f7ef25afc9965d353dcc483417743ec0c8b4c008762c8c508f2404729f34dfe4260001b620000f260201b60201c565b8060009080519060200190620000ea929190620000f5565b5050620003f8565b50565b828054620001039062000309565b90600052602060002090601f01602090048101928262000127576000855562000173565b82601f106200014257805160ff191683800117855562000173565b8280016001018555821562000173579182015b828111156200017257825182559160200191906001019062000155565b5b50905062000182919062000186565b5090565b5b80821115620001a157600081600090555060010162000187565b5090565b6000620001bc620001b6846200029d565b62000274565b905082815260208101848484011115620001db57620001da620003d8565b5b620001e8848285620002d3565b509392505050565b600082601f830112620002085762000207620003d3565b5b81516200021a848260208601620001a5565b91505092915050565b6000602082840312156200023c576200023b620003e2565b5b600082015167ffffffffffffffff8111156200025d576200025c620003dd565b5b6200026b84828501620001f0565b91505092915050565b60006200028062000293565b90506200028e82826200033f565b919050565b6000604051905090565b600067ffffffffffffffff821115620002bb57620002ba620003a4565b5b620002c682620003e7565b9050602081019050919050565b60005b83811015620002f3578082015181840152602081019050620002d6565b8381111562000303576000848401525b50505050565b600060028204905060018216806200032257607f821691505b6020821081141562000339576200033862000375565b5b50919050565b6200034a82620003e7565b810181811067ffffffffffffffff821117156200036c576200036b620003a4565b5b80604052505050565b7f4e487b7100000000000000000000000000000000000000000000000000000000600052602260045260246000fd5b7f4e487b7100000000000000000000000000000000000000000000000000000000600052604160045260246000fd5b600080fd5b600080fd5b600080fd5b600080fd5b6000601f19601f8301169050919050565b6105b380620004086000396000f3fe608060405234801561001057600080fd5b50600436106100365760003560e01c806317d7de7c1461003b5780635353a2d814610059575b600080fd5b610043610075565b60405161005091906103c1565b60405180910390f35b610073600480360381019061006e919061033f565b61018b565b005b60606100a37fb48ac4fa1df604c090818fd0c7cd2bd0bc58b86f2d4aa2f47323d750a468654a60001b610229565b6100cf7f8c85f6c31bfaafcdf472ef1750717456b1cdd8291e863717b6d7f44a18edb3c660001b610229565b6100fb7fa58bed87a5aede06f874210709c7dd9b7fc19346d59118ae3fc6803c5d72d5df60001b610229565b6000805461010890610497565b80601f016020809104026020016040519081016040528092919081815260200182805461013490610497565b80156101815780601f1061015657610100808354040283529160200191610181565b820191906000526020600020905b81548152906001019060200180831161016457829003601f168201915b5050505050905090565b6101b77ff412a53d0286f1fe5b611eed4e7d175e263e5637d8efa7de0234de8bb597dfbb60001b610229565b6101e37f2d4722fee73504e4d3ca7adbdcdfe72e53001ff6c426dc7f6ecbc2a182afd37b60001b610229565b61020f7f939756d804d7e9133ebda4eaa2f5301c0ae937811c99225b50bea86887b89c5d60001b610229565b806000908051906020019061022592919061022c565b5050565b50565b82805461023890610497565b90600052602060002090601f01602090048101928261025a57600085556102a1565b82601f1061027357805160ff19168380011785556102a1565b828001600101855582156102a1579182015b828111156102a0578251825591602001919060010190610285565b5b5090506102ae91906102b2565b5090565b5b808211156102cb5760008160009055506001016102b3565b5090565b60006102e26102dd84610408565b6103e3565b9050828152602081018484840111156102fe576102fd61055d565b5b610309848285610455565b509392505050565b600082601f83011261032657610325610558565b5b81356103368482602086016102cf565b91505092915050565b60006020828403121561035557610354610567565b5b600082013567ffffffffffffffff81111561037357610372610562565b5b61037f84828501610311565b91505092915050565b600061039382610439565b61039d8185610444565b93506103ad818560208601610464565b6103b68161056c565b840191505092915050565b600060208201905081810360008301526103db8184610388565b905092915050565b60006103ed6103fe565b90506103f982826104c9565b919050565b6000604051905090565b600067ffffffffffffffff82111561042357610422610529565b5b61042c8261056c565b9050602081019050919050565b600081519050919050565b600082825260208201905092915050565b82818337600083830152505050565b60005b83811015610482578082015181840152602081019050610467565b83811115610491576000848401525b50505050565b600060028204905060018216806104af57607f821691505b602082108114156104c3576104c26104fa565b5b50919050565b6104d28261056c565b810181811067ffffffffffffffff821117156104f1576104f0610529565b5b80604052505050565b7f4e487b7100000000000000000000000000000000000000000000000000000000600052602260045260246000fd5b7f4e487b7100000000000000000000000000000000000000000000000000000000600052604160045260246000fd5b600080fd5b600080fd5b600080fd5b600080fd5b6000601f19601f830116905091905056fea264697066735822122016e31774375e0aa98a0e0ee375b51702ec59af1f9b0ede277de507a1ed7f824564736f6c63430008050033",
  "linkReferences": {},
  "deployedLinkReferences": {}
}